{
  "address": "0x9bC8c0FaA1d450e9E0e4f08c198f0b0dab37478f",
  "abi": [
    {
      "inputs": [
        {
          "internalType": "contract IFeed",
          "name": "_ftmFeed",
          "type": "address"
        },
        {
          "internalType": "contract IFeed",
          "name": "_ethFeed",
          "type": "address"
        }
      ],
      "payable": false,
      "stateMutability": "nonpayable",
      "type": "constructor"
    },
    {
      "constant": true,
      "inputs": [],
      "name": "decimals",
      "outputs": [
        {
          "internalType": "uint8",
          "name": "",
          "type": "uint8"
        }
      ],
      "payable": false,
      "stateMutability": "view",
      "type": "function"
    },
    {
      "constant": true,
      "inputs": [],
      "name": "ethFeed",
      "outputs": [
        {
          "internalType": "contract IFeed",
          "name": "",
          "type": "address"
        }
      ],
      "payable": false,
      "stateMutability": "view",
      "type": "function"
    },
    {
      "constant": true,
      "inputs": [],
      "name": "ftmFeed",
      "outputs": [
        {
          "internalType": "contract IFeed",
          "name": "",
          "type": "address"
        }
      ],
      "payable": false,
      "stateMutability": "view",
      "type": "function"
    },
    {
      "constant": true,
      "inputs": [],
      "name": "latestAnswer",
      "outputs": [
        {
          "internalType": "uint256",
          "name": "",
          "type": "uint256"
        }
      ],
      "payable": false,
      "stateMutability": "view",
      "type": "function"
    }
  ],
  "transactionHash": "0xf741822117e097a1283fdd97c131191aa0844f1b3a874cd146c5032fb16bda0b",
  "args": [
    "0x2DE7E4a9488488e0058B95854CC2f7955B35dC9b",
    "0x5f4eC3Df9cbd43714FE2740f5E3616155c5b8419"
  ],
  "solcInputHash": "171aa0e285966923bd7e6058afec666b",
  "bytecode": "0x608060405234801561001057600080fd5b5060405161046c38038061046c8339818101604052604081101561003357600080fd5b508051602090910151600080546001600160a01b039384166001600160a01b031991821617909155600180549390921692169190911790556103f28061007a6000396000f3fe608060405234801561001057600080fd5b506004361061004c5760003560e01c8063192ad6c014610051578063313ce5671461007557806350d25bcd146100935780635e19d05c146100ad575b600080fd5b6100596100b5565b604080516001600160a01b039092168252519081900360200190f35b61007d6100c4565b6040805160ff9092168252519081900360200190f35b61009b6100c9565b60408051918252519081900360200190f35b61005961024c565b6000546001600160a01b031681565b601290565b60008054604080516350d25bcd60e01b8152905183926001600160a01b0316916350d25bcd916004808301926020929190829003018186803b15801561010e57600080fd5b505afa158015610122573d6000803e3d6000fd5b505050506040513d602081101561013857600080fd5b50516001546040805163313ce56760e01b81529051929350610246926001600160a01b039092169163313ce56791600480820192602092909190829003018186803b15801561018657600080fd5b505afa15801561019a573d6000803e3d6000fd5b505050506040513d60208110156101b057600080fd5b5051600154604080516350d25bcd60e01b8152905160ff909316600a0a9261023a926001600160a01b0316916350d25bcd916004808301926020929190829003018186803b15801561020157600080fd5b505afa158015610215573d6000803e3d6000fd5b505050506040513d602081101561022b57600080fd5b5051849063ffffffff61025b16565b9063ffffffff6102bd16565b91505090565b6001546001600160a01b031681565b60008261026a575060006102b7565b8282028284828161027757fe5b04146102b45760405162461bcd60e51b815260040180806020018281038252602181526020018061039d6021913960400191505060405180910390fd5b90505b92915050565b60006102b483836040518060400160405280601a81526020017f536166654d6174683a206469766973696f6e206279207a65726f000000000000815250600081836103865760405162461bcd60e51b81526004018080602001828103825283818151815260200191508051906020019080838360005b8381101561034b578181015183820152602001610333565b50505050905090810190601f1680156103785780820380516001836020036101000a031916815260200191505b509250505060405180910390fd5b50600083858161039257fe5b049594505050505056fe536166654d6174683a206d756c7469706c69636174696f6e206f766572666c6f77a265627a7a72315820a5b6384b7cdae8be630ce7f2a291419af18563aafcf3103cac80173257f85de864736f6c63430005100032",
  "devdoc": {
    "methods": {}
  },
  "userdoc": {
    "methods": {}
  },
  "storageLayout": {
    "storage": [
      {
        "astId": 33267,
        "contract": "contracts/FtmFeed.sol:FtmFeed",
        "label": "ftmFeed",
        "offset": 0,
        "slot": "0",
        "type": "t_contract(IFeed)33260"
      },
      {
        "astId": 33269,
        "contract": "contracts/FtmFeed.sol:FtmFeed",
        "label": "ethFeed",
        "offset": 0,
        "slot": "1",
        "type": "t_contract(IFeed)33260"
      }
    ],
    "types": {
      "t_contract(IFeed)33260": {
        "encoding": "inplace",
        "label": "contract IFeed",
        "numberOfBytes": "20"
      }
    }
  }
}